:02000000A7282F
:100006008312061586144130CC00EE30CD00CD0BA0
:0A0016000A28CC0B0A28000008009D
:100020008312861406114130CC00EE30CD00CD0B8A
:100030001728CC0B17280000861006114130CC0081
:10004000EE30CD00CD0B2228CC0B2228000008007A
:100050008312861006154130CC00EE30CD00CD0B5A
:100060002F28CC0B2F280000861006114130CC0021
:10007000EE30CD00CD0B3A28CC0B3A28000008001A
:0C008000831211088A001008820008009A
:10008C008312861006114130CC00EE30CD00CD0B22
:0A009C004D28CC0B4D280000080091
:1000A6008312051D5A2801308E0000308F00851DF1
:1000B600602802308E0000308F00851C66280130D3
:1000C6008C0000308D00051C6C2802308C0000303E
:1000D6008D0080300D06C00080300F064002031DE3
:1000E60076280E080C0203187928282080300F067F
:1000F600C00080300D064002031D83280C080E0246
:100106000318862810200D080F06031D8C280E08DC
:0C0116000C06031D8F280320532808004E
:04012200462008006B
:1001260040208A110A128000840A900A0319910A53
:08013600C003031D932808001B
:10013E0083160515851585140514061086100800FE
:10014E0083128C018D018E018F019F2091205320EF
:02015E00AF28C8
:02400E00FA3F77
:00000001FF
