:02000000622874
:0E0006008312031321088A00200882000800DC
:0A001400831203130610861408007F
:0A001E008312031306108610080079
:0A002800831203130614861008006B
:0A003200831203138614061408005D
:10003C0003208A110A128000840AA00A0319A10A5B
:08004C00F003031D1E2808004B
:1000540083120313861B3728061B37281920861B97
:100064003628061B362831285728861B4228061FA7
:1000740042281420861B4128061F41283C28572863
:10008400861F4D28061B4D280A20861F4C28061B58
:100094004C2847285728861F5728061F57280F2003
:0E00A400861F5728061F572852282A280800B2
:0400B2000F20080013
:0E00B60083160313861706170610861008001F
:0800C4005B2059202A20652869
:02400E004A2F37
:00000001FF
