:020000006D2869
:0800060083120617861608009C
:08000E00831286160613080098
:08001600831286120617080090
:0C001E00831211088A00100882000800FC
:08002A00831286120613080080
:100032008312861C202801308C0000308D00061DA2
:10004200262802308C0000308D00861D2C280130BD
:100052008E0000308F00061E322802308E000030E3
:100062008F0080300F06C00080300D064002031D55
:100072003C280C080E0203183F280B2080300D0686
:10008200C00080300F064002031D49280E080C02F2
:1000920003184C2807200F080D06031D52280C08D0
:0C00A2000E06031D552803201928080035
:0400AE001520080011
:1000B2000F208A110A128000840A900A0319910AF9
:0800C200C003031D59280800CA
:1000CA008316861406158615061686120613080068
:1000DA0083128C018D018E018F0165205720192012
:0200EA00752877
:02400E00FA3F77
:00000001FF
