:02000000712865
:080006008312851405150800A2
:08000E0083120515851008009E
:08001600831205118514080096
:0C001E00831211088A00100882000800FC
:08002A00831205118510080086
:1000320083128E018F018C018D01061A2428013052
:100042008E0000308F00861A2A2802308E0000307F
:100052008F008619302801308C0000308D0006197F
:10006200362802308C0000308D0080300D06C00032
:1000720080300F064002031D40280E080C020318B0
:1000820043280B2080300F06C00080300D0640024E
:10009200031D4D280C080E020318502807200D08D6
:1000A2000F06031D56280E080C06031D59280320AF
:0400B2001928080001
:0400B6001520080009
:1000BA000F208A110A128000840A900A0319910AF1
:0800CA00C003031D5D280800BE
:1000D2008316061686168615061505118510080064
:1000E20083128C018D018E018F0169205B20192002
:0200F20079286B
:02400E00FA3F77
:00000001FF
